:100000000C94B5000C94D2000C945B020C94D200BA
:100010000C94D2000C94D2000C94D2000C94D20018
:100020000C94D2000C94D2000C94D2000C94D20008
:100030000C94D2000C94D2000C94D2000C94D200F8
:100040000C9449010C94D2000C94D2000C94D20070
:100050000C94D2000C94D2000C94D2000C94D200D8
:100060000C94D2000C94D2006E616E00696E660032
:1000700000407A10F35A00A0724E18090010A5D45F
:10008000E80000E87648170000E40B54020000CABC
:100090009A3B000000E1F505000080969800000002
:1000A00040420F000000A086010000001027000061
:1000B0000000E803000000006400000000000A00E7
:1000C000000000000100000000002C76D888DC67EA
:1000D0004F0823DFC1DFAE59E1B1B796E5E3E45342
:1000E000C63AE651997696E8E6C28426EB898C9B5F
:1000F00062ED407C6FFCEFBC9C9F40F2BAA56FA5FF
:10010000F490055A2AF75C936B6CF9676DC11BFC80
:10011000E0E40D47FEF520E6B500D0ED902E03009B
:10012000943577050080841E080000204E0A0000E8
:1001300000C80C333333330F986E12831141EF8DA7
:100140002114893BE65516CFFEE6DB18D1844B38E7
:100150001BF77C1D901DA4BBE424203284725E2218
:100160008100C9F124ECA1E53D2711241FBECFEF8A
:10017000D8E0DEBFCDBF11E0A0E0B1E0E2EDFAE1F2
:1001800002C005900D92AC3BB107D9F712E0ACEB81
:10019000B1E001C01D92A230B107E1F70E947403E3
:1001A0000C94670D0C9400009091C00095FFFCCF5B
:1001B0008093C60080E090E00895EAE7F0E0808157
:1001C00087608083ACE7B0E08C9180648C93808101
:1001D00080688083808180648083089580917C0022
:1001E000807F80937C0080917C0080937C00809154
:1001F0007A00806480937A0080917A0086FDFCCF3B
:100200002091780030917900C90108951092C500BD
:1002100087E68093C400E0ECF0E080818D7F8083EE
:1002200086E08093C20088E18093C10008958091A8
:10023000C00087FFFCCF8091C6000895229A2A98BB
:10024000F894A0E8B0E01C92E1E8F0E0108210928F
:1002500085001092840083EA8C938BE18083109256
:100260008B0010928A0085E39CE090938900809334
:10027000880078940895F89414BC15BC16BC85B514
:10028000856085BDEEE6F0E08081816080837894B2
:1002900008951F920F920FB60F9211248F939F9380
:1002A000AF93BF938091EC019091ED01A091EE018D
:1002B000B091EF010196A11DB11D8093EC019093C7
:1002C000ED01A093EE01B093EF01BF91AF919F912B
:1002D0008F910F900FBE0F901F901895F89460911A
:1002E000EC017091ED018091EE019091EF010E947F
:1002F000290A25E831EB45E85CE30E94DD0A7894A1
:100300000895F8946091EC017091ED018091EE01F7
:100310009091EF010E94290A25E831EB45E85CE362
:100320000E94DD0A20E030E04AE754E40E94DD0A42
:10033000789408952AE939E949E950E40E94DD0AF0
:100340000E94F6092FE1269FC001279F900D1124DE
:10035000843C29E0920710F084EC99E0F8949093A3
:100360008B0080938A00789408958F929F92AF9229
:10037000BF92EF92FF920F931F93CF93DF930E9450
:10038000EE00BC0180E090E00E94270A20E030E00F
:1003900040EA5BE30E94DD0A20E030E040E850E400
:1003A0000E94D90A18160CF45AC0CCE2D1E0E12C14
:1003B000F12C00E010E00E94EE00BC0180E090E033
:1003C0000E94270A20E030E84BE350E40E94DD0A57
:1003D00020E030E048EC52E40E9425099B01AC018A
:1003E0006E2D7F2D802F912F0E9426097B018C017D
:1003F000219709F720E030E046E953E47F2D912F63
:100400000E948E098B01D82FC92F24EA30E74DE7CF
:100410005FE36091C4017091C5018091C601909124
:10042000C7010E94DD0A4B015C0120E037ED43E289
:100430005CE3FE01602F712F8F2F9E2F0E94DD0A3B
:100440009B01AC01C501B4010E9426096093C4015F
:100450007093C5018093C6019093C70104C000E06A
:1004600010E0D0E8CFEB9E01602F712F832F9C2FDF
:10047000DF91CF911F910F91FF90EF90BF90AF90C0
:100480009F908F9008955298539856985A9A5B9AD5
:100490005E9A1092C1011092C001E9E6F0E08081FD
:1004A00088608083E99A089589B186FB882780F95E
:1004B00091E0892708951F920F920FB60F92112491
:1004C0008F939F938091C201882369F08091C0012E
:1004D0009091C1014A9B02C0019601C0019790937F
:1004E000C1018093C0019F918F910F900FBE0F901B
:1004F0001F901895F8948091C0019091C101789453
:10050000089582E00E94AF028FE391E00197F1F736
:1005100000C0000082E191E00E94D10282E00E94CE
:10052000BB0282E091E00E94D10281E00C94BB0208
:100530005D9887FD5D9A5C9886FD5C9A289885FD9C
:10054000289A5F9884FD5F9A2B9A85E08A95F1F747
:1005500000002B9885E08A95F1F700000895CF936D
:10056000C82F2C982B980E9498028C2F8295807F00
:10057000CF910C94980280EC0E94AF028FE391E03F
:100580000197F1F700C000000895CF93C82F2C9A6F
:100590002B980E9498028C2F8295807FCF910C948B
:1005A00098020F931F93CF93DF9300D0CDB7DEB7A0
:1005B0008C011A82198213C0E981FA81E00FF11FC0
:1005C00080810E94C50229813A812F5F3F4F3A8383
:1005D00029838FE391E00197F1F700C00000E981E2
:1005E000FA81E00FF11F80818111E6CF0F900F900B
:1005F000DF91CF911F910F910895559A549A209AA7
:10060000579A239A249A2FEF81EE94E0215080404C
:100610009040E1F700C000002C982B9880E30E94E6
:1006200098028FE39CE90197F1F700C0000080E396
:100630000E9498028FE193E00197F1F700C000005B
:1006400080E30E9498028FE193E00197F1F700C0E8
:10065000000088E20E9498028FE391E00197F1F791
:1006600000C0000088E20E94AF028FE391E0019792
:10067000F1F700C0000088E00E94AF028FE391E034
:100680000197F1F700C0000081E00E94AF028FE700
:100690009EE30197F1F700C0000086E00E94AF02E0
:1006A0008FE391E00197F1F700C000008CE00E9419
:1006B000AF028FE391E00197F1F700C000000895C9
:1006C0000E94FD028EE491E00E94D10280EC0E9423
:1006D000AF028FE391E00197F1F700C000008DE3D6
:1006E00091E00E94D102FFCFCF93DF931F92CDB74D
:1006F000DEB70E940601789482E291E09093FF01B8
:100700008093FE010E941E010E943B010E94FD0297
:100710008CE591E00E94A80C0E9443020E94DD003B
:100720008CED90E0909301018093000143E6242E2C
:1007300041E0342E10E101E00E9481028091C3016A
:10074000813009F476C018F08230B1F7F7C160E06B
:1007500070E0CB010E949A010E947A0295958795DC
:100760009595879584529F4F909301018093000146
:100770009F938F933F922F921F921F9322E131E01C
:100780003F932F930E94D70C0E9454020FB6F89407
:10079000DEBF0FBECDBF882309F446C00E945402BD
:1007A0008111FCCFFFEF29E638E1F15020403040C5
:1007B000E1F700C000002BC00093C2010E9481023B
:1007C0000E947A02959587959595879584529F4FBB
:1007D00090930101809300019F938F933F922F92FA
:1007E0001F921F9342E151E05F934F930E94D70CF9
:1007F000E2E1F1E0FF93EF9347E751E05F934F931E
:100800000E94910C0FB6F894DEBF0FBECDBF0E94C0
:100810005402882389F2FFEF29E638E1F1502040A5
:100820003040E1F700C000001092C2010093C30104
:1008300083CF809101018F93809100018F934EE7C8
:1008400051E05F934F931F921F93E2E1F1E0FF931A
:10085000EF930E94D70C0E9481020E9481010E94A6
:10086000F6096B017C016093E0017093E1018093D4
:10087000E2019093E3018091CC019091CD01A09190
:10088000CE01B091CF01A7019601281B390B4A0B6D
:100890005B0BCA01B9010E94290A6093F0017093B1
:1008A000F1018093F2019093F301C092CC01D092B8
:1008B000CD01E092CE01F092CF010E94B5016B0113
:1008C0007C010E94F6097F936F9341E951E05F93A9
:1008D0004F931F921F93E2E0F1E0FF93EF930E948A
:1008E000D70C0FB6F894DEBF0FBECDBF20E030E0CE
:1008F000A901C701B6010E948A0987FF17C084EACF
:1009000091E09F938F931F921F9382E091E09F93BA
:100910008F930E94D70C0E9481020F900F900F902E
:100920000F900F900F90F1E0F98301C01982809130
:10093000E0019091E101A091E201B091E301809387
:10094000BC019093BD01A093BE01B093BF01609123
:1009500000017091010180E090E00E94270AA70148
:1009600096010E9425096B017C01862F9D2DAE2DDD
:10097000BF2D8093D8019093D901A093DA01B09351
:10098000DB0120E030E04AE754E46091F00170912F
:10099000F1018091F2019091F3010E948E09762E6F
:1009A000872E982EA92E2091E4013091E5014091E7
:1009B000E6015091E7016C2D7D2D8E2D9F2D0E941B
:1009C0002509272D382D492D5A2D0E948E09B62E26
:1009D000472E582E692E862F942DA52DB62D809347
:1009E000D0019093D101A093D201B093D301272DD0
:1009F000382D492D5A2D6C2D7D2D8E2D9F2D0E9429
:100A0000DD0A2091F8013091F9014091FA015091ED
:100A1000FB010E942609762E872E982EA92E862F5E
:100A2000982DA92DBA2D8093F8019093F901A093E8
:100A3000FA01B093FB018C2D9D2DAE2DBF2D80931F
:100A4000E4019093E501A093E601B093E7018BE701
:100A500094E1AEE2BEE38093D4019093D501A093DC
:100A6000D601B093D7011092C8011092C90110921B
:100A7000CA011092CB018AE097EDA3EABBE3809311
:100A8000F4019093F501A093F601B093F7012BE7E1
:100A900034E14EE25EE36C2D7D2D8E2D9F2D0E9464
:100AA000DD0A6B017C0120E030E0A9016B2D742D83
:100AB000852D962D0E94DD0A9B01AC01C701B60170
:100AC0000E9426096B017C012AE037ED43EA5BE3D3
:100AD000672D782D892D9A2D0E94DD0A9B01AC018E
:100AE000C701B6010E9426096B017C01862F9D2D4E
:100AF000AE2DBF2D8093DC019093DD01A093DE012C
:100B0000B093DF0120E030E0A9016C2D7D2D8E2D0A
:100B10009F2D0E94D90A87FD08C02981211105C097
:100B20006C2D7D2D8E2D9F2D03C060E070E0CB01DC
:100B30000E949A0182E08093C301FECD1092C3010E
:100B4000FBCDA3E1B0E0E7EAF5E00C94400B7C01BB
:100B50005B018A01FC0117821682838181FD03C03B
:100B60006DC3860105C088248394912C8C0E9D1E34
:100B7000F7019381F50193FD859193FF81915F01C9
:100B8000882309F457C3853239F493FD859193FF87
:100B900081915F01853231F4B70190E00E94650CCC
:100BA0006801DFCF412C512C20E02032A8F48B3299
:100BB00061F028F4803251F0833271F40BC08D3231
:100BC00039F0803349F4216028C02260246025C0B8
:100BD000286023C0206121C027FD27C0382F305353
:100BE0003A3078F426FF06C0FAE04F9E300D11240B
:100BF000432E13C08AE0589E300D1124532E2062DC
:100C00000CC08E3221F426FD15C3206406C08C363C
:100C100011F4206802C0883641F4F50193FD8591F6
:100C200093FF81915F018111C0CF982F955493302C
:100C300018F42061805E06C0982F9556933008F016
:100C4000A1C12F7E26FD02C056E0452E4FE3742E33
:100C50007222853619F4F0E47F2A07C0863619F42B
:100C600020E8722A02C041104A9477FE07C03BE395
:100C7000341548F0342C339427E00DC087E08415F8
:100C800030F0242D07C027E03CE3332E04C027E0DA
:100C900097E0492E312C680194E0C90ED11CF8016F
:100CA0006081718182819381032DA4010E94770B61
:100CB0008C0129812C8720FF02C023FF07C071FC13
:100CC00008C072FE09C080E2682E07C0BDE26B2E2C
:100CD00004C0ABE26A2E01C0612C8C858C70A1F13E
:100CE000662011F084E001C083E0851510F0512CDE
:100CF0000BC0581A73FC08C0B70180E290E00E9454
:100D0000650C5A94C9F7F3CF662029F0B701862DF8
:100D100090E00E94650C3C8533FD03C00CE610E0BA
:100D20000CC008E610E009C071108052B70190E0D5
:100D30000E94650C0F5F1F4F02C080E17822F8010E
:100D400084918111F1CF73C277FE0EC0300E2C85D5
:100D500024FF04C08A81813309F43A9413144CF5BA
:100D600038E0331548F12CC076FC2AC0242D30E041
:100D70002017310744F00C3F8FEF180724F090E85C
:100D8000792A01C04A94442049F0E2E0F0E0EC0FF7
:100D9000FD1FE40DF11D80818033A1F377FE10C0AB
:100DA000342C3394242D30E00217130744F4401AF6
:100DB00007C03324339404C0F8E03F2E01C0412C17
:100DC00077FE07C0101611063CF498012F5F3F4FC5
:100DD00005C025E030E002C021E030E0662011F0DF
:100DE0002F5F3F4F442031F0442D50E04F5F5F4F65
:100DF000240F351F452D50E02417350714F4521ADF
:100E000001C0512C872D897049F406C0B70180E2DA
:100E100090E00E94650C5A945110F8CF662029F09A
:100E2000B701862D90E00E94650C73FC09C006C0D6
:100E3000B70180E390E00E94650C5A945110F8CFFE
:100E400077FE53C0380117FF02C0612C712C1E863B
:100E50001D86980123193109388B2F871801261810
:100E60003708280C391C642D70E022273327261BF5
:100E7000370B3A8B298B3FEF6316730629F4B701C2
:100E80008EE290E00E94650C061517055CF02F8538
:100E900038892615370534F4ED85FE85E20DF31DFE
:100EA000818101C080E331E0631A71082D853E85A0
:100EB0002F5F3F4F3E872D8729893A896216730637
:100EC0002CF0B70190E00E94650CD5CF601671063A
:100ED00049F49A81963328F4953321F43C8534FD06
:100EE00001C081E3B70190E04AC08A81813319F0E3
:100EF0002C852F7E2C87B70190E00E94650C411055
:100F000005C074FE16C085E490E015C0B7018EE2FE
:100F100090E00E94650CE2E06E2EF401E60DF11DFA
:100F20006394B701808190E00E94650C4A94A9F710
:100F3000E8CF85E690E0B7010E94650C17FD06C07A
:100F40000115110541F43C8534FF05C0119501954B
:100F500011098DE201C08BE2B70190E00E94650C9F
:100F600080E303C08F5F0A5011090A301105D4F7DE
:100F7000B70190E00E94650CB701C801C0960E94BD
:100F8000650C55C1833631F0833781F0833509F024
:100F90005EC024C0680182E0C80ED11CF8018081C7
:100FA000898366246394712C840114C06801F2E083
:100FB000CF0ED11CF8010081118126FF03C0642DE2
:100FC00070E002C06FEF7FEFC8012B8B0E945A0CBC
:100FD0003C012B896FE7462E422217C06801F2E0E0
:100FE000CF0ED11CF8010081118126FF03C0642DB2
:100FF00070E002C06FEF7FEFC8012B8B0E944F0C97
:101000003C012B8950E8452E422A43FC1CC006C0F7
:10101000B70180E290E00E94650C5A94852D90E023
:1010200068167906A8F30FC0F80147FC859147FEC2
:1010300081918F01B70190E00E94650C51105A9484
:10104000F1E06F1A71086114710471F7F0C0843611
:1010500011F0893661F5680127FF09C034E0C30E3D
:10106000D11CF80160817181828193810AC0F2E014
:10107000CF0ED11CF80160817181882777FD8095A2
:10108000982F4FE6742E722297FF09C09095809595
:10109000709561957F4F8F4F9F4FF0E87F2A2AE030
:1010A00030E0A4010E94090D682E681847C08537FA
:1010B00031F43FEE732E72222AE030E024C099EF23
:1010C000792E72228F36B9F020F4883509F0B2C03B
:1010D0000DC0803721F0883709F0ACC002C020E194
:1010E000722A74FE0BC034E0732A08C024FF09C0C2
:1010F00086E0782A06C028E030E005C020E130E034
:1011000002C020E132E0680177FE09C094E0C90E18
:10111000D11CF801608171818281938108C0F2E065
:10112000CF0ED11CF8016081718180E090E0A401B4
:101130000E94090D682E6818FFE77F2276FE0BC01B
:10114000072D0E7F641450F474FE0AC072FC08C0B0
:10115000072D0E7E05C0162D072D03C0162D01C0CC
:10116000142D04FF0CC0FE01E60DF11D80818033BB
:1011700011F4097E08C002FF05C01E5F04C0802F65
:10118000867809F01F5F03FD12C000FF0DC0462CDA
:10119000151550F4450C411A152D06C0B70180E213
:1011A00090E00E94650C1F5F1515C0F304C0151573
:1011B00010F4511A01C0512C04FF10C0B70180E394
:1011C00090E00E94650C02FF1EC001FF03C088E58D
:1011D00090E002C088E790E0B7010CC0802F8678CD
:1011E00091F001FD02C080E201C08BE207FD8DE2BB
:1011F000B70190E00E94650C06C0B70180E390E063
:101200000E94650C4A946414C0F36A94F401E60DDC
:10121000F11DB701808190E00E94650C6110F5CF4F
:1012200006C0B70180E290E00E94650C5A9451100C
:10123000F8CF97CCF7012681378102C02FEF3FEF1F
:10124000C9016396E2E10C945C0B5058BB27AA27B6
:101250000ED075C166D130F06BD120F031F49F3FD4
:1012600011F41EF45BC10EF4E095E7FB51C1E92FC8
:1012700077D180F3BA17620773078407950718F0D0
:1012800071F49EF58FC10EF4E0950B2EBA2FA02DB0
:101290000B01B90190010C01CA01A0011124FF2723
:1012A000591B99F0593F50F4503E68F11A16F0401E
:1012B000A22F232F342F4427585FF3CF469537951D
:1012C0002795A795F0405395C9F77EF41F16BA0BE2
:1012D000620B730B840BBAF09150A1F0FF0FBB1F90
:1012E000661F771F881FC2F70EC0BA0F621F731FD9
:1012F000841F48F4879577956795B795F7959E3F36
:1013000008F0B3CF9395880F08F09927EE0F9795C3
:1013100087950895D9D008F481E008950CD00FC1C5
:1013200007D140F0FED030F021F45F3F19F0F0C05B
:10133000511139C1F3C014D198F39923C9F355233E
:10134000B1F3951B550BBB27AA27621773078407B8
:1013500038F09F5F5F4F220F331F441FAA1FA9F36E
:1013600033D00E2E3AF0E0E830D091505040E69560
:10137000001CCAF729D0FE2F27D0660F771F881FC1
:10138000BB1F261737074807AB07B0E809F0BB0BB0
:10139000802DBF01FF2793585F4F2AF09E3F5105D4
:1013A00068F0B6C000C15F3FECF3983EDCF3869571
:1013B00077956795B795F7959F5FC9F7880F911D4A
:1013C0009695879597F90895E1E0660F771F881F36
:1013D000BB1F621773078407BA0720F0621B730BE9
:1013E000840BBA0BEE1F88F7E095089504D068943B
:1013F000B111D9C00895BCD088F09F5790F0B92F93
:101400009927B751A0F0D1F0660F771F881F991F59
:101410001AF0BA95C9F712C0B13081F0C3D0B1E06B
:101420000895C0C0672F782F8827B85F39F0B93F7B
:10143000CCF3869577956795B395D9F73EF490955B
:101440008095709561957F4F8F4F9F4F0895E894D9
:1014500009C097FB3EF490958095709561957F4FFC
:101460008F4F9F4F9923A9F0F92F96E9BB279395AA
:10147000F695879577956795B795F111F8CFFAF4BA
:10148000BB0F11F460FF1BC06F5F7F4F8F4F9F4FEB
:1014900016C0882311F096E911C0772321F09EE849
:1014A000872F762F05C0662371F096E8862F70E0AF
:1014B00060E02AF09A95660F771F881FDAF7880F89
:1014C0009695879597F90895990F0008550FAA0BDF
:1014D000E0E8FEEF16161706E807F907C0F0121647
:1014E0001306E407F50798F0621B730B840B950B4A
:1014F00039F40A2661F0232B242B252B21F408959F
:101500000A2609F4A140A6958FEF811D811D08953B
:1015100097F99F6780E870E060E008959FEF80ECA6
:10152000089500240A941616170618060906089549
:1015300000240A9412161306140605060895092EAF
:101540000394000C11F4882352F0BB0F40F4BF2B1E
:1015500011F460FF04C06F5F7F4F8F4F9F4F08955E
:1015600057FD9058440F551F59F05F3F71F0479554
:10157000880F97FB991F61F09F3F79F08795089539
:10158000121613061406551FF2CF4695F1DF08C058
:10159000161617061806991FF1CF86957105610575
:1015A00008940895E894BB2766277727CB0197F91D
:1015B00008958ADF08F48FEF08950BD0C0CFB1DF14
:1015C00028F0B6DF18F0952309F0A2CFA7CF112499
:1015D000EACFC6DFA0F3959FD1F3950F50E0551FDA
:1015E000629FF001729FBB27F00DB11D639FAA2778
:1015F000F00DB11DAA1F649F6627B00DA11D661FC7
:10160000829F2227B00DA11D621F739FB00DA11DE7
:10161000621F839FA00D611D221F749F3327A00DA1
:10162000611D231F849F600D211D822F762F6A2F3D
:1016300011249F5750408AF0E1F088234AF0EE0FC2
:10164000FF1FBB1F661F771F881F91505040A9F7CF
:101650009E3F510570F05CCFA6CF5F3FECF3983E04
:10166000DCF3869577956795B795F795E7959F5F36
:10167000C1F7FE2B880F911D9695879597F90895D0
:101680002F923F924F925F926F927F928F929F9292
:10169000AF92BF92CF92DF92EF92FF920F931F9380
:1016A000CF93DF93CDB7DEB7CA1BDB0B0FB6F89431
:1016B000DEBF0FBECDBF09942A88398848885F8471
:1016C0006E847D848C849B84AA84B984C884DF80E2
:1016D000EE80FD800C811B81AA81B981CE0FD11DC6
:1016E0000FB6F894DEBF0FBECDBFED0108952830D0
:1016F00008F027E03327DA01990F311D87FD91604B
:1017000000966105710539F432602E5F3D9330E338
:101710002A95E1F708959F3F30F080387105610503
:1017200009F03C5F3C5F3D93913008F08068911D6B
:10173000DF93CF931F930F93FF92EF92192F987F10
:101740009695E92F96959695E90FFF27E653FF4F5B
:1017500099273327EE24FF24A701E7010590089479
:10176000079428F4360FE71EF81E491F511D660F17
:10177000771F881F991F0694A1F70590079428F4F6
:10178000E70EF81E491F561FC11D770F881F991FAE
:10179000661F0694A1F70590079428F4F80E491FD8
:1017A000561FC71FD11D880F991F661F771F0694EC
:1017B000A1F70590079420F4490F561FC71FD81FA3
:1017C000990F661F771F881F0694A9F784911095BB
:1017D000177041F0D695C79557954795F794E794BC
:1017E0001A95C1F7E0E7F0E06894159015913591EE
:1017F0006591959105907FE27395E118F10A430B8D
:10180000560BC90BD009C0F7E10CF11E431F561F40
:10181000C91FD01D7EF4703311F48A95E6CFE89489
:10182000015030F0080F0AF40027021708F4202FA7
:101830002395022F7A3328F079E37D932A95E9F7EF
:1018400010C07D932A9589F60694979567953795EC
:1018500017951794E118F10A430B560BC90BD009E1
:1018600098F023957E9173957A3308F070E37C931A
:101870002013B8F77E9170617D9330F0839571E30A
:101880007D9370E32A95E1F71124EF90FF900F917B
:101890001F91CF91DF91992787FD90950895FC01C5
:1018A0000590615070400110D8F7809590958E0F8B
:1018B0009F1F0895FC016150704001900110D8F7FE
:1018C000809590958E0F9F1F08950F931F93CF9330
:1018D000DF938C01EB018B8181FD03C00FEF1FEFC4
:1018E0001AC082FF0DC02E813F818C819D812817F7
:1018F000390764F4E881F9810193F983E88306C02C
:10190000E885F985802F0995892B41F78E819F8184
:1019100001969F838E83C801DF91CF911F910F9114
:101920000895A2E0B0E0E7E9FCE00C94500BFE0162
:10193000379661917191FA83E983AF018091FE013D
:101940009091FF010E94A1052296E2E00C946C0B9D
:101950000F931F93CF93DF938C01E091FE01F091E1
:10196000FF01838181FF1BC0C0E0D0E005C0099565
:10197000892B11F0CFEFDFEFF80181918F0160919A
:10198000FE017091FF01DB011896ED91FC91199712
:101990008111EDCF8AE00995892B09F402C0CFEFC0
:1019A000DFEFCE01DF91CF911F910F910895A0E15C
:1019B000B0E0EDEDFCE00C944E0B0F89188D898D95
:1019C0009A8D26E02C831A83098397FF02C080E05A
:1019D00090E801979E838D83AE01435E5F4F588BE5
:1019E0004F876B8D7C8DCE0101960E94A1054D81A4
:1019F0005E8157FD0AC02F813885421753070CF4CA
:101A00009A01F801E20FF31F10826096E4E00C9453
:101A10006A0BFA01AA27283051F1203181F1E894AC
:101A20006F936E7F6E5F7F4F8F4F9F4FAF4FB1E0D1
:101A30003ED0B4E03CD0670F781F891F9A1FA11DCC
:101A4000680F791F8A1F911DA11D6A0F711D811DCD
:101A5000911DA11D20D009F468943F912AE0269F92
:101A600011243019305D3193DEF6CF010895462FF1
:101A70004770405D4193B3E00FD0C9F7F6CF462FD2
:101A80004F70405D4A3318F0495D31FD405241933B
:101A900002D0A9F7EACFB4E0A695979587957795F8
:101AA0006795BA95C9F700976105710508959B017F
:101AB000AC010A2E06945795479537952795BA9508
:101AC000C9F7620F731F841F951FA01D0895F89416
:021AD000FFCF46
:101AD200DC00202020202020202020202020202068
:101AE20020005374617274696E67207570202E2E07
:101AF2002E000000000200000000D40000000000E0
:101B02005365702031362C2032303133004C43443F
:101B12002D4156522D346420286763632900446F97
:101B22006E616C64205765696D616E004465627513
:101B3200740D00536574203A20256920432020202B
:101B4200202020202020005B25735D0A0D005465B3
:101B52006D70202569204320202020202020202075
:101B62000020256920432020202020202020202022
:101B7200202020004E6F2049726F6E2020202020EE
:0C1B820020202020202020202020000017
:00000001FF
